:100000000C9434000C9446000C9446000C9446006A
:100010000C9446000C9446000C9446000C94460048
:100020000C9446000C9446000C9446000C94460038
:100030000C9446000C9446000C9446000C94460028
:100040000C9446000C947B000C9448000C944600E1
:100050000C9446000C9446000C9446000C94460008
:100060000C9446000C94460011241FBECFEFD8E03C
:10007000DEBFCDBF21E0A0E0B1E001C01D92A836F7
:10008000B207E1F70E9410010C9421010C940000CA
:100090001F921FB61F9211242F938F939F93EF935C
:1000A000FF93E0916401F09165018091C600808327
:1000B000E0916401F09165018081811102C08FE7B8
:1000C00080838091640190916501019621E08336DF
:1000D000920709F068F49093650180936401FF91A1
:1000E000EF919F918F912F911F901FBE1F90189598
:1000F00080E091E0F0CF1F920F920FB60F92112483
:100100002F933F934F935F936F937F938F939F931F
:10011000AF93BF93EF93FF938EB58F3FA1F08EB552
:100120000E94F300FF91EF91BF91AF919F918F914A
:100130007F916F915F914F913F912F910F900FBEE3
:100140000F901F901895E0916601F09167018091E2
:100150006401909165018E179F0721F380818EBD08
:100160008091660190916701019621E083369207A4
:1001700009F028F49093670180936601D3CF80E063
:1001800091E0F8CF89E190E09093C5008093C4009E
:10019000E0ECF0E080818D7F8083E2ECF0E0808114
:1001A0008F77808380818F7B8083A1ECB0E08C91FE
:1001B0008B7F8C9380818460808380818260808348
:1001C00080818F7D808380818F7E80838081877F07
:1001D00080838C9180618C938C9188608C938C91BE
:1001E00080688C9308959091C00095FF03C0809320
:1001F000C6000895A895F7CF0F931F93CF93DF9371
:10020000EC018C01060F171FC017D10728F0DF91F2
:10021000CF911F910F91089589910E94F300F4CF1F
:1002200080E091E09093670180936601909365016F
:1002300080936401249A80EC8CBD78940E94C20063
:06024000FFCFF894FFCF90
:00000001FF
